:020000040800F2
:10000000680600203902000877020008790200081B
:100010007B0200087D0200087F020008000000004B
:100020000000000000000000000000008102000845
:10003000830200080000000085020008B9030008E0
:100040008902000889020008890200088902000864
:100050008902000889020008890200088902000854
:100060008902000889020008890200088902000844
:100070008902000889020008890200088902000834
:100080008902000889020008890200088902000824
:100090008902000889020008890200088902000814
:1000A0008902000889020008890200088902000804
:1000B00089020008890200088902000889020008F4
:1000C00089020008890200088902000889020008E4
:1000D00089020008890200088902000889020008D4
:1000E00089020008890200088902000889020008C4
:1000F00089020008890200088902000889020008B4
:1001000089020008890200088902000889020008A3
:100110008902000889020008890200088902000893
:100120008902000889020008890200088902000883
:100130008902000889020008890200088902000873
:100140008902000889020008890200088902000863
:100150008902000889020008890200088902000853
:100160008902000889020008890200088902000843
:1001700089020008890200088902000800000000C6
:10018000890200088902000800F002F800F044F833
:1001900014A696E8000CB244B344DA4501D100F04D
:1001A0003BF8BAE80F000FA696E83000A5EB04056F
:1001B00004EB0607AAEB0704A7F101074FEA1515A0
:1001C0004FEA3414A4F10104AC4201D300F024F846
:1001D00013F0010F18BFFB1A43F0010300F001F800
:1001E000DBE71847D8090000E80900007047000065
:1001F0000023002400250026103A28BF78C1FBD830
:10020000520728BF30C148BF0B6070471FB500F0D0
:10021000D3FB1FBD10B510BD00F057F81146FFF716
:10022000F5FF00F00DFB00F075F803B4FFF7F2FFE7
:1002300003BC00F07DF8000017481849184B99429C
:100240003CBF50F8042B41F8042BF8D3154B16494A
:100250004FF000028B4238BF43F8042BFAD3DFF88B
:100260004C00016841F470010160BFF34F8FBFF390
:100270006F8F0F480047FEE7FEE7FEE7FEE7FEE769
:10028000FEE7FEE7FEE7FEE7FEE7000009480A4951
:100290000A4A0B4B70470000CC0B000800000020FE
:1002A00000000020000000206806002088ED00E02B
:1002B000890100086800002068060020680200200C
:1002C00068020020704770477047754600F02CF8B0
:1002D000AE4605006946534620F00700854618B033
:1002E00020B5FFF7D3FFBDE820404FF000064FF0E8
:1002F00000074FF000084FF0000BAC46ACE8C00917
:10030000ACE8C009ACE8C009ACE8C00921F00701BD
:100310008D46704710B50446AFF300802046BDE817
:100320001040FFF782BF0000004870470000002027
:1003300001491820ABBEFEE726000200704700000E
:1003400041F24C01C4F20201086840F0010008606B
:100350004FF09041086820F440600860086840F45D
:10036000806008600821C4F60001086820F440603D
:100370000860086840F4406008600421C4F6000189
:10038000086820F0200008600C21C4F6000108680D
:1003900020F44060086070471421C4F6000108682A
:1003A00020F02000086070471421C4F6000108689E
:1003B00040F020000860704740F26001C2F2000186
:1003C000086801300860704780B582B04EF21001B5
:1003D000CEF200010191002008604EF21402CEF22C
:1003E000000242F20F7111604EF21801CEF20001CC
:1003F00008604FF0FF300090012100F0DFF9009815
:1004000000F0C4F90199086840F00200086008682B
:1004100020F004000860086840F00100086002B0A5
:1004200080BD000083B042F20001C4F202010868FE
:1004300020F007000860086840F00200086041F200
:100440000001C4F20201086840F480700860FFE710
:1004500041F20000C4F2020000684005002801D407
:10046000FFE7F5E71020029041F20401C4F2020117
:10047000086820F0F8500860029A086840EA0260B4
:10048000086041F20001C4F20201086820F08070A7
:100490000860FFE741F20000C4F20200006880013A
:1004A000002801D5FFE7F5E741F20C01C4F2020193
:1004B0000191086820F003000860086840F002001D
:1004C00008600868142262F30E20086008680122A0
:1004D00062F306100860086820F0C06008600868D1
:1004E00040F08070086041F20001C4F20201086827
:1004F00040F080700860FFE741F20000C4F20200A3
:1005000000688001002801D4FFE7F5E741F2080107
:10051000C4F20201086820F003000860086840F097
:1005200003000860FFE741F20800C4F2020000681F
:1005300000F00C000C2801D0FFE7F4E741F20801BD
:10054000C4F20201086820F0F0000860086820F496
:10055000E0600860086820F46050086041F2000123
:10056000C4F20201086820F080600860FFE741F2F1
:100570000000C4F2020000684001002801D5FFE736
:10058000F5E741F21001C4F202010091086820F47D
:10059000FE400860086840F4C0500860086840F4F5
:1005A00000300860086840F48030086041F20001C3
:1005B000C4F20201086840F080600860FFE741F281
:1005C0000000C4F2020000684001002801D4FFE7E7
:1005D000F5E741F28801C4F20201086820F4400006
:1005E000086041F26001C4F20201086840F40010A2
:1005F000086003B07047000041F24C01C4F20201F0
:10060000086840F0010008604FF09041086820F051
:10061000F0000860086840F0A00008602021C4F6DF
:100620000001086820F47F400860086840F4EE404C
:1006300008600821C4F60001086840F0F000086076
:100640000C21C4F60001086820F0F00008600421C5
:10065000C4F60001086820F00C0008607047000034
:1006600080B541F25801C4F20201086840F400303C
:10067000086041F28801C4F20201086820F00C0011
:100680000860086840F004000860FFF7B5FF44F216
:100690000040C4F2000000F001F880BD81B000907D
:1006A0000099086820F0010008600099086820F0AF
:1006B000102008600099086820F400400860009944
:1006C000486820F440504860009942F28D00C860AC
:1006D0000099086840F00C000860009844F600415A
:1006E000C4F20001884224D1FFE70099086840F075
:1006F000200008600099086820F040000860009918
:10070000086820F0100008600099086820F0800058
:1007100008600099086820F48070086000990868F3
:1007200020F0400008600099086820F0010008608F
:10073000FFE7009844F20041C4F2000188420ED164
:10074000FFE70099086A40F04000086243F608019C
:10075000C4F20101086840F0C0000860FFE700999A
:10076000086840F001000860FFE70098C069800257
:10077000002801D4FFE7F8E7FFE70098C0694002CE
:10078000002801D4FFE7F8E701B0704781B08DF889
:1007900003009DF9030000280ED4FFE79DF9031024
:1007A00001F01F02012090404A094EF20011CEF2E2
:1007B000000141F82200FFE701B0704782B08DF8D8
:1007C000070000919DF9070000280AD4FFE7009870
:1007D00000019DF907104EF20042CEF2000288544B
:1007E0000BE0009800019DF8071001F00F014EF694
:1007F0001452CEF200028854FFE702B070470000A6
:1008000082B0019040F26000C2F20000002101605D
:1008100000680090FFE740F26000C2F2000000684C
:100820000099401A0199884201D2FFE7F3E740F2AC
:100830006001C2F200010020086002B070470000B1
:1008400080B586B00020019005908DF80C0046F62A
:100850004470C6F26E500290FFF7E4FDFFF7B4FD5E
:10086000FFF76EFDFFF7FCFE01980490FFE740F6EE
:100870001B20C0F6000000F067F80E2000F092F890
:10088000F5E7000083B08DF807009DF807006128A8
:100890000BDBFFE79DF807007A2806DCFFE79DF8F1
:1008A000070020388DF80700FFE740F69420C0F6D7
:1008B00000000090FFE70098007880B1FFE7009803
:1008C00000789DF80710884204D1FFE7009840683F
:1008D000029007E0FFE7009808300090EBE7002067
:1008E0000290FFE7029803B07047000080B584B023
:1008F0008DF80F009DF80F00202804D1FFE7072096
:1009000000F050F81EE09DF80F00FFF7BBFF0290CB
:10091000029808B9FFE715E000200190FFE7029870
:100920000199405C50B1FFE702980199405C00F0EA
:1009300023F8FFE7019801300190F0E7022000F072
:1009400031F8FFE704B080BD80B582B0019000208F
:100950000090FFE701980099405C50B1FFE70198D3
:100960000099405CFFF7C2FFFFE70098013000905C
:10097000F0E702B080BD000080B582B08DF80700BE
:10098000FFF712FD9DF8071003202E2908BF012054
:1009900000F008F8FFF700FD012000F003F802B0B6
:1009A00080BD000080B582B001900198C821484305
:1009B000FFF726FF02B080BDF1EE100A4FF6FF717F
:1009C000C0F2C03120EA010040F04070E1EE100AB0
:1009D00070474C4544206973204F66660D0A0D0A26
:1009E00000476976652073656E74656E6365207473
:1009F0006F207072696E7420696E206D6F727365FE
:100A0000207468656E20707265737320656E7465FE
:100A1000723A0D0A00446F6E650A0048454C4C4F0F
:100A200020574F524C4400255B5E0A5D252A630027
:100A30002D2D2D2D2D002E2D2D2D2D002E2E2D2D3D
:100A40002D002D2E2D2D002E2E2E2D2D002D2D2E58
:100A50002D002D2E2E2D002E2E2E2E2D002D2D2D47
:100A60002D2E002E2D2D2E002D2E2D2E002E2E2D36
:100A70002E002D2D2D2E2E002E2D2E2E002D2D2E26
:100A80002E2E002D2E2E2E2E002E2E2E2E2E002E11
:100A90005F000000410000008F0A000842000000D3
:100AA0007E0A000843000000680A000844000000B5
:100AB000790A0008450000008D0A00084600000081
:100AC0006D0A000847000000640A000848000000A2
:100AD0008A0A0008490000008C0A00084A00000049
:100AE0003D0A00084B0000004E0A00084C000000C0
:100AF000780A00084D0000004A0A00084E00000075
:100B00006F0A00084F0000003E0A00085000000075
:100B1000630A0008510000004D0A0008520000005E
:100B20006E0A0008530000008B0A00085400000001
:100B30005B0A000855000000590A00085600000032
:100B4000580A000857000000490A00085800000031
:100B5000520A000859000000420A00085A0000002A
:100B6000730A000831000000360A00083200000055
:100B70003C0A000833000000470A00083400000067
:100B8000570A000835000000890A000836000000F6
:100B9000830A0008370000007D0A000838000000C2
:100BA000720A0008390000005D0A000830000000E9
:100BB000300A00080000000000000000CC0B000814
:0C0BC0000000002068060000F0010008A2
:040000050800018965
:00000001FF
